{
  "contractName": "AccessRestriction",
  "abi": [
    {
      "constant": true,
      "inputs": [],
      "name": "owner",
      "outputs": [
        {
          "name": "",
          "type": "address"
        }
      ],
      "payable": false,
      "stateMutability": "view",
      "type": "function"
    },
    {
      "constant": true,
      "inputs": [],
      "name": "creationTime",
      "outputs": [
        {
          "name": "",
          "type": "uint256"
        }
      ],
      "payable": false,
      "stateMutability": "view",
      "type": "function"
    },
    {
      "constant": false,
      "inputs": [
        {
          "name": "_newOwner",
          "type": "address"
        }
      ],
      "name": "changeOwner",
      "outputs": [],
      "payable": false,
      "stateMutability": "nonpayable",
      "type": "function"
    },
    {
      "constant": false,
      "inputs": [],
      "name": "disown",
      "outputs": [],
      "payable": false,
      "stateMutability": "nonpayable",
      "type": "function"
    },
    {
      "constant": false,
      "inputs": [
        {
          "name": "_newOwner",
          "type": "address"
        }
      ],
      "name": "forceOwnerChange",
      "outputs": [],
      "payable": true,
      "stateMutability": "payable",
      "type": "function"
    }
  ],
  "bytecode": "0x6080604052336000806101000a81548173ffffffffffffffffffffffffffffffffffffffff021916908373ffffffffffffffffffffffffffffffffffffffff1602179055504260015534801561005457600080fd5b506105a1806100646000396000f30060806040526004361061006d576000357c0100000000000000000000000000000000000000000000000000000000900463ffffffff1680630cb0c7f0146100725780631e9bf0da146100a85780638da5cb5b146100bf578063a6f9dae114610116578063d8270dce14610159575b600080fd5b6100a6600480360381019080803573ffffffffffffffffffffffffffffffffffffffff169060200190929190505050610184565b005b3480156100b457600080fd5b506100bd6102d4565b005b3480156100cb57600080fd5b506100d4610441565b604051808273ffffffffffffffffffffffffffffffffffffffff1673ffffffffffffffffffffffffffffffffffffffff16815260200191505060405180910390f35b34801561012257600080fd5b50610157600480360381019080803573ffffffffffffffffffffffffffffffffffffffff169060200190929190505050610466565b005b34801561016557600080fd5b5061016e61056f565b6040518082815260200191505060405180910390f35b680ad78ebc5ac6200000803410151515610206576040517f08c379a000000000000000000000000000000000000000000000000000000000815260040180806020018281038252601a8152602001807f4e6f7420656e6f7567682045746865722070726f76696465642e00000000000081525060200191505060405180910390fd5b816000806101000a81548173ffffffffffffffffffffffffffffffffffffffff021916908373ffffffffffffffffffffffffffffffffffffffff160217905550600160008060009054906101000a900473ffffffffffffffffffffffffffffffffffffffff1673ffffffffffffffffffffffffffffffffffffffff1616141561028e5761028f565b5b803411156102d0573373ffffffffffffffffffffffffffffffffffffffff166108fc8234039081150290604051600060405180830381858888f19350505050505b5050565b6000809054906101000a900473ffffffffffffffffffffffffffffffffffffffff168073ffffffffffffffffffffffffffffffffffffffff163373ffffffffffffffffffffffffffffffffffffffff16141515610399576040517f08c379a00000000000000000000000000000000000000000000000000000000081526004018080602001828103825260168152602001807f53656e646572206e6f7420617574686f72697a65642e0000000000000000000081525060200191505060405180910390fd5b62375f0060015401804210151515610419576040517f08c379a000000000000000000000000000000000000000000000000000000000815260040180806020018281038252601a8152602001807f46756e6374696f6e2063616c6c656420746f6f206561726c792e00000000000081525060200191505060405180910390fd5b6000806101000a81549073ffffffffffffffffffffffffffffffffffffffff02191690555050565b6000809054906101000a900473ffffffffffffffffffffffffffffffffffffffff1681565b6000809054906101000a900473ffffffffffffffffffffffffffffffffffffffff168073ffffffffffffffffffffffffffffffffffffffff163373ffffffffffffffffffffffffffffffffffffffff1614151561052b576040517f08c379a00000000000000000000000000000000000000000000000000000000081526004018080602001828103825260168152602001807f53656e646572206e6f7420617574686f72697a65642e0000000000000000000081525060200191505060405180910390fd5b816000806101000a81548173ffffffffffffffffffffffffffffffffffffffff021916908373ffffffffffffffffffffffffffffffffffffffff1602179055505050565b600154815600a165627a7a7230582065b5bbdc7e0a8de7108cf01e0108fc4b061e0c45efc009edb1dc52ec9fcfba3b0029",
  "source": "pragma solidity ^0.4.22;\n\ncontract AccessRestriction {\n    // These will be assigned at the construction\n    // phase, where `msg.sender` is the account\n    // creating this contract.\n    address public owner = msg.sender;\n    uint public creationTime = now;\n\n    // Modifiers can be used to change\n    // the body of a function.\n    // If this modifier is used, it will\n    // prepend a check that only passes\n    // if the function is called from\n    // a certain address.\n    modifier onlyBy(address _account)\n    {\n        require(\n            msg.sender == _account,\n            \"Sender not authorized.\"\n        );\n        // Do not forget the \"_;\"! It will\n        // be replaced by the actual function\n        // body when the modifier is used.\n        _;\n    }\n\n    /// Make `_newOwner` the new owner of this\n    /// contract.\n    function changeOwner(address _newOwner)\n        public\n        onlyBy(owner)\n    {\n        owner = _newOwner;\n    }\n\n    modifier onlyAfter(uint _time) {\n        require(\n            now >= _time,\n            \"Function called too early.\"\n        );\n        _;\n    }\n\n    /// Erase ownership information.\n    /// May only be called 6 weeks after\n    /// the contract has been created.\n    function disown()\n        public\n        onlyBy(owner)\n        onlyAfter(creationTime + 6 weeks)\n    {\n        delete owner;\n    }\n\n    // This modifier requires a certain\n    // fee being associated with a function call.\n    // If the caller sent too much, he or she is\n    // refunded, but only after the function body.\n    // This was dangerous before Solidity version 0.4.0,\n    // where it was possible to skip the part after `_;`.\n    modifier costs(uint _amount) {\n        require(\n            msg.value >= _amount,\n            \"Not enough Ether provided.\"\n        );\n        _;\n        if (msg.value > _amount)\n            msg.sender.send(msg.value - _amount);\n    }\n\n    function forceOwnerChange(address _newOwner)\n        public\n        payable\n        costs(200 ether)\n    {\n        owner = _newOwner;\n        // just some example condition\n        if (uint(owner) & 0 == 1)\n            // This did not refund for Solidity\n            // before version 0.4.0.\n            return;\n        // refund overpaid fees\n    }\n}\n",
  "sourcePath": "/Users/ebyjacob/BCSummitLondon/BCDPatterns/contracts/AccessRestriction.sol",
  "compiler": {
    "name": "solc",
    "version": "0.4.24+commit.e67f0147.Emscripten.clang"
  },
  "schemaVersion": "2.0.1",
  "updatedAt": "2018-06-27T12:13:42.123Z"
}