{
  "contractName": "CarShop",
  "abi": [
    {
      "constant": false,
      "inputs": [
        {
          "name": "brand",
          "type": "string"
        },
        {
          "name": "model",
          "type": "string"
        }
      ],
      "name": "createChildContract",
      "outputs": [],
      "payable": true,
      "stateMutability": "payable",
      "type": "function"
    },
    {
      "constant": true,
      "inputs": [],
      "name": "getDeployedChildContracts",
      "outputs": [
        {
          "name": "",
          "type": "address[]"
        }
      ],
      "payable": false,
      "stateMutability": "view",
      "type": "function"
    }
  ],
  "bytecode": "0x608060405234801561001057600080fd5b506108a4806100206000396000f30060806040526004361061004c576000357c0100000000000000000000000000000000000000000000000000000000900463ffffffff168063527596bf14610051578063f7ce1408146100bd575b600080fd5b34801561005d57600080fd5b5061006661015f565b6040518080602001828103825283818151815260200191508051906020019060200280838360005b838110156100a957808201518184015260208101905061008e565b505050509050019250505060405180910390f35b61015d600480360381019080803590602001908201803590602001908080601f0160208091040260200160405190810160405280939291908181526020018383808284378201915050505050509192919290803590602001908201803590602001908080601f01602080910402602001604051908101604052809392919081815260200183838082843782019150505050505091929192905050506101ed565b005b606060008054806020026020016040519081016040528092919081815260200182805480156101e357602002820191906000526020600020905b8160009054906101000a900473ffffffffffffffffffffffffffffffffffffffff1673ffffffffffffffffffffffffffffffffffffffff1681526020019060010190808311610199575b5050505050905090565b60008282336101fa610392565b8080602001806020018473ffffffffffffffffffffffffffffffffffffffff1673ffffffffffffffffffffffffffffffffffffffff168152602001838103835286818151815260200191508051906020019080838360005b8381101561026d578082015181840152602081019050610252565b50505050905090810190601f16801561029a5780820380516001836020036101000a031916815260200191505b50838103825285818151815260200191508051906020019080838360005b838110156102d35780820151818401526020810190506102b8565b50505050905090810190601f1680156103005780820380516001836020036101000a031916815260200191505b5095505050505050604051809103906000f080158015610324573d6000803e3d6000fd5b50905060008190806001815401808255809150509060018203906000526020600020016000909192909190916101000a81548173ffffffffffffffffffffffffffffffffffffffff021916908373ffffffffffffffffffffffffffffffffffffffff16021790555050505050565b6040516104d6806103a3833901905600608060405234801561001057600080fd5b506040516104d63803806104d683398101806040528101908080518201929190602001805182019291906020018051906020019092919050505082600090805190602001906100609291906100c1565b5081600190805190602001906100779291906100c1565b5080600260006101000a81548173ffffffffffffffffffffffffffffffffffffffff021916908373ffffffffffffffffffffffffffffffffffffffff160217905550505050610166565b828054600181600116156101000203166002900490600052602060002090601f016020900481019282601f1061010257805160ff1916838001178555610130565b82800160010185558215610130579182015b8281111561012f578251825591602001919060010190610114565b5b50905061013d9190610141565b5090565b61016391905b8082111561015f576000816000905550600101610147565b5090565b90565b610361806101756000396000f300608060405260043610610057576000357c0100000000000000000000000000000000000000000000000000000000900463ffffffff1680630ad9d0521461005c5780632d9fff01146100ec5780638da5cb5b1461017c575b600080fd5b34801561006857600080fd5b506100716101d3565b6040518080602001828103825283818151815260200191508051906020019080838360005b838110156100b1578082015181840152602081019050610096565b50505050905090810190601f1680156100de5780820380516001836020036101000a031916815260200191505b509250505060405180910390f35b3480156100f857600080fd5b50610101610271565b6040518080602001828103825283818151815260200191508051906020019080838360005b83811015610141578082015181840152602081019050610126565b50505050905090810190601f16801561016e5780820380516001836020036101000a031916815260200191505b509250505060405180910390f35b34801561018857600080fd5b5061019161030f565b604051808273ffffffffffffffffffffffffffffffffffffffff1673ffffffffffffffffffffffffffffffffffffffff16815260200191505060405180910390f35b60018054600181600116156101000203166002900480601f0160208091040260200160405190810160405280929190818152602001828054600181600116156101000203166002900480156102695780601f1061023e57610100808354040283529160200191610269565b820191906000526020600020905b81548152906001019060200180831161024c57829003601f168201915b505050505081565b60008054600181600116156101000203166002900480601f0160208091040260200160405190810160405280929190818152602001828054600181600116156101000203166002900480156103075780601f106102dc57610100808354040283529160200191610307565b820191906000526020600020905b8154815290600101906020018083116102ea57829003601f168201915b505050505081565b600260009054906101000a900473ffffffffffffffffffffffffffffffffffffffff16815600a165627a7a72305820d2acfc215a6a4f3e7dd41858686511d04318ca62b0b74e79cd6813cbc2e50e670029a165627a7a723058205c8a9943682a92ed50c54dbbc3ecbe8190c4db400834387781ee7790964b3aa90029",
  "source": "pragma solidity ^0.4.24;\n\n\ncontract CarShop {\n   address[] carAssets;\n   function createChildContract(string brand, string model) public   payable {\n      // insert check if the sent ether is enough to cover the car asset ...\n      address newCarAsset = new CarAsset(brand, model, msg.sender);            \n      carAssets.push(newCarAsset);   \n   }\n   function getDeployedChildContracts() public view returns (address[]) {\n      return carAssets;\n   }\n}\ncontract CarAsset {\n   string public brand;\n   string public model;\n   address public owner;\n   \n   constructor (string _brand, string _model, address _owner) public {\n      brand = _brand;\n      model = _model;\n      owner = _owner;\n   }\n}\n",
  "sourcePath": "/Users/ebyjacob/BCSummitLondon/BCDPatterns/contracts/FactoryContract.sol",
  "compiler": {
    "name": "solc",
    "version": "0.4.24+commit.e67f0147.Emscripten.clang"
  },
  "schemaVersion": "2.0.1",
  "updatedAt": "2018-06-27T05:02:38.007Z"
}