{
  "contractName": "NameRegistry",
  "abi": [
    {
      "constant": false,
      "inputs": [
        {
          "name": "name",
          "type": "string"
        },
        {
          "name": "addr",
          "type": "address"
        },
        {
          "name": "ver",
          "type": "uint16"
        }
      ],
      "name": "registerName",
      "outputs": [
        {
          "name": "",
          "type": "bool"
        }
      ],
      "payable": false,
      "stateMutability": "nonpayable",
      "type": "function"
    },
    {
      "constant": true,
      "inputs": [
        {
          "name": "name",
          "type": "string"
        }
      ],
      "name": "getContractDetails",
      "outputs": [
        {
          "name": "",
          "type": "address"
        },
        {
          "name": "",
          "type": "uint16"
        }
      ],
      "payable": false,
      "stateMutability": "view",
      "type": "function"
    }
  ],
  "bytecode": "0x608060405234801561001057600080fd5b506106f4806100206000396000f30060806040526004361061004c576000357c0100000000000000000000000000000000000000000000000000000000900463ffffffff168063be3f4a5b14610051578063bfafff5b14610100575b600080fd5b34801561005d57600080fd5b506100e6600480360381019080803590602001908201803590602001908080601f0160208091040260200160405190810160405280939291908181526020018383808284378201915050505050509192919290803573ffffffffffffffffffffffffffffffffffffffff169060200190929190803561ffff1690602001909291905050506101b8565b604051808215151515815260200191505060405180910390f35b34801561010c57600080fd5b50610167600480360381019080803590602001908201803590602001908080601f016020809104026020016040519081016040528093929190818152602001838380828437820191505050505050919291929050505061055e565b604051808373ffffffffffffffffffffffffffffffffffffffff1673ffffffffffffffffffffffffffffffffffffffff1681526020018261ffff1661ffff1681526020019250505060405180910390f35b60006101c2610676565b60018361ffff16101515156101d657600080fd5b6000856040518082805190602001908083835b60208310151561020e57805182526020820191506020810190506020830392506101e9565b6001836020036101000a0380198251168184511680821785525050505050509050019150509081526020016040518091039020606060405190810160405290816000820160009054906101000a900473ffffffffffffffffffffffffffffffffffffffff1673ffffffffffffffffffffffffffffffffffffffff1673ffffffffffffffffffffffffffffffffffffffff1681526020016001820160009054906101000a900473ffffffffffffffffffffffffffffffffffffffff1673ffffffffffffffffffffffffffffffffffffffff1673ffffffffffffffffffffffffffffffffffffffff1681526020016001820160149054906101000a900461ffff1661ffff1661ffff168152505090503373ffffffffffffffffffffffffffffffffffffffff16816000015173ffffffffffffffffffffffffffffffffffffffff1614151561035957600080fd5b600073ffffffffffffffffffffffffffffffffffffffff16816020015173ffffffffffffffffffffffffffffffffffffffff1614156103e5576060604051908101604052803373ffffffffffffffffffffffffffffffffffffffff1681526020018573ffffffffffffffffffffffffffffffffffffffff1681526020018461ffff168152509050610432565b82816040019061ffff16908161ffff168152505083816020019073ffffffffffffffffffffffffffffffffffffffff16908173ffffffffffffffffffffffffffffffffffffffff16815250505b806000866040518082805190602001908083835b60208310151561046b5780518252602082019150602081019050602083039250610446565b6001836020036101000a038019825116818451168082178552505050505050905001915050908152602001604051809103902060008201518160000160006101000a81548173ffffffffffffffffffffffffffffffffffffffff021916908373ffffffffffffffffffffffffffffffffffffffff16021790555060208201518160010160006101000a81548173ffffffffffffffffffffffffffffffffffffffff021916908373ffffffffffffffffffffffffffffffffffffffff16021790555060408201518160010160146101000a81548161ffff021916908361ffff16021790555090505060019150509392505050565b6000806000836040518082805190602001908083835b6020831015156105995780518252602082019150602081019050602083039250610574565b6001836020036101000a038019825116818451168082178552505050505050905001915050908152602001604051809103902060010160009054906101000a900473ffffffffffffffffffffffffffffffffffffffff166000846040518082805190602001908083835b6020831015156106285780518252602082019150602081019050602083039250610603565b6001836020036101000a038019825116818451168082178552505050505050905001915050908152602001604051809103902060010160149054906101000a900461ffff1691509150915091565b606060405190810160405280600073ffffffffffffffffffffffffffffffffffffffff168152602001600073ffffffffffffffffffffffffffffffffffffffff168152602001600061ffff16815250905600a165627a7a72305820573b53b65b5de3032a4d55688c3b54cd1918f5492d87c99416ba3f561d31481d0029",
  "source": "pragma solidity ^0.4.24;\n\ncontract NameRegistry {\n   struct ContractDetails {\n      address owner;\n      address contractAddress;\n      uint16 version;\n   }\n   mapping(string => ContractDetails) registry;\n   \n   function registerName(string name, address addr, uint16 ver) public returns (bool) {\n      // versions should start from 1\n      require(ver >= 1);\n      \n      ContractDetails memory info = registry[name];\n      require(info.owner == msg.sender);\n      // create info if it doesn't exist in the registry\n       if (info.contractAddress == address(0)) {\n          info = ContractDetails({\n             owner: msg.sender,\n             contractAddress: addr,\n             version: ver\n          });\n       } else {\n          info.version = ver;\n          info.contractAddress = addr;\n       }\n       // update record in the registry\n       registry[name] = info;\n       return true;\n   }\n    function getContractDetails(string name) constant public returns(address, uint16) {\n      return (registry[name].contractAddress, registry[name].version);\n   }\n}\n",
  "sourcePath": "/Users/ebyjacob/BCSummitLondon/BCDPatterns/contracts/NameRegistryContract.sol",
  "compiler": {
    "name": "solc",
    "version": "0.4.24+commit.e67f0147.Emscripten.clang"
  },
  "schemaVersion": "2.0.1",
  "updatedAt": "2018-06-27T12:13:42.124Z"
}