{
  "contractName": "SendContract",
  "abi": [
    {
      "constant": true,
      "inputs": [],
      "name": "richest",
      "outputs": [
        {
          "name": "",
          "type": "address"
        }
      ],
      "payable": false,
      "stateMutability": "view",
      "type": "function"
    },
    {
      "constant": true,
      "inputs": [],
      "name": "mostSent",
      "outputs": [
        {
          "name": "",
          "type": "uint256"
        }
      ],
      "payable": false,
      "stateMutability": "view",
      "type": "function"
    },
    {
      "inputs": [],
      "payable": true,
      "stateMutability": "payable",
      "type": "constructor"
    },
    {
      "constant": false,
      "inputs": [],
      "name": "becomeRichest",
      "outputs": [
        {
          "name": "",
          "type": "bool"
        }
      ],
      "payable": true,
      "stateMutability": "payable",
      "type": "function"
    }
  ],
  "bytecode": "0x6080604052336000806101000a81548173ffffffffffffffffffffffffffffffffffffffff021916908373ffffffffffffffffffffffffffffffffffffffff160217905550346001819055506102238061005a6000396000f300608060405260043610610057576000357c0100000000000000000000000000000000000000000000000000000000900463ffffffff16806302e26c381461005c5780636886bf1c146100b357806369934ee7146100de575b600080fd5b34801561006857600080fd5b50610071610100565b604051808273ffffffffffffffffffffffffffffffffffffffff1673ffffffffffffffffffffffffffffffffffffffff16815260200191505060405180910390f35b3480156100bf57600080fd5b506100c8610125565b6040518082815260200191505060405180910390f35b6100e661012b565b604051808215151515815260200191505060405180910390f35b6000809054906101000a900473ffffffffffffffffffffffffffffffffffffffff1681565b60015481565b60006001543411156101ef576000809054906101000a900473ffffffffffffffffffffffffffffffffffffffff1673ffffffffffffffffffffffffffffffffffffffff166108fc349081150290604051600060405180830381858888f1935050505015801561019e573d6000803e3d6000fd5b50336000806101000a81548173ffffffffffffffffffffffffffffffffffffffff021916908373ffffffffffffffffffffffffffffffffffffffff16021790555034600181905550600190506101f4565b600090505b905600a165627a7a72305820d683c9741b09dc4062ccb027f15065c886e8eb1f385da33f3a2ad87c005d50ae0029",
  "source": "pragma solidity ^0.4.24;\n\ncontract SendContract {\n    address public richest;\n    uint public mostSent;\n\n    function SendContract() public payable {\n        richest = msg.sender;\n        mostSent = msg.value;\n    }\n\n    function becomeRichest() public payable returns (bool) {\n        if (msg.value > mostSent) {\n            // This line can cause problems (explained below).\n            richest.transfer(msg.value);\n            richest = msg.sender;\n            mostSent = msg.value;\n            return true;\n        } else {\n            return false;\n        }\n    }\n}\n",
  "sourcePath": "/Users/ebyjacob/BCSummitLondon/BCDPatterns/contracts/SendContract.sol",
  "compiler": {
    "name": "solc",
    "version": "0.4.24+commit.e67f0147.Emscripten.clang"
  },
  "schemaVersion": "2.0.1",
  "updatedAt": "2018-06-27T12:13:42.124Z"
}